:02000002B0004C
:1040000000400B00CA950B00000006000C000502E2
:084010000401B41400000000DB
:0440180030800B00E9
:10401C0010F8012B11F8013B012A28BF9A42F7D066
:10402C00D01A7047034613F8012B002AFBD1181A3B
:10403C000138704709480A49884208B505D0094A31
:10404C00824202D0121A03F0A3FE0748074A00214D
:10405C00121A03F0ABFE014808BD00BF70E5032047
:10406C002C950B00E0E50320E0E50320F0E70320AE
:10407C0070B5074E074C02F051FEA41BA408002596
:10408C00AC4200D170BD56F8043B98470135F7E7B8
:10409C00E4940B0008950B0000F05ABD08B500F035
:1040AC00DFFCBDE8084002F0F1BD02F091BB02F06C
:1040BC008FBB02F095BB000008B5034A03490C20E6
:1040CC0002F0DAFAFEE700BF65630B0044800B00D8
:1040DC000078B0FA80F040097047012303707047F4
:1040EC0008B502F041F9034B1860BDE8084002F036
:1040FC005FBB00BF40E7032003682BB142689342CB
:10410C0002D2184603F03CBE0020704738B5056853
:10411C00044645B143689D4205D22846FFF782FF0D
:10412C00013005442560204638BDF8B50446476883
:10413C000D4621B903687A1C4260D955F8BD084672
:10414C00FFF770FFA368461CF2199A42F6D8206854
:10415C0032462946384403F01BFE606830446060E8
:10416C00ECE7000038B504460B46D0E901012568A0
:10417C00044A091A284402F03BFB636801300344EB
:10418C00636038BD59800B0038B504460B46D0E946
:10419C0001012568044A091A284402F029FB6368C6
:1041AC0001300344636038BD5C800B0010B5074CD4
:1041BC00204601F04DFD0121204601F072F900224C
:1041CC004FF00113C4E9042310BD00BF40E60320E7
:1041DC0008B500234377006803F032FABDE80840C5
:1041EC0002F044B82DE9F0438F188FB0B942CDE9F5
:1041FC00051706468946904680F0C28005A80D88B2
:10420C00FFF784FF0368BB4280F0BA8005980378FF
:10421C00412B49D1013003F0B3FD052837DDFF24D4
:10422C0047F276239D4200F0D38041D847F26123B8
:10423C009D4200F0A88047F264239D426BD046F665
:10424C0070539D4241D1784D784EDFF8F48105983A
:10425C00B84280F095800378412B4BD1013003F0AC
:10426C008FFD052839DDFF2405A8FFF74FFFDDF88A
:10427C00149029464846FFF7CBFE014600283DD155
:10428C00204603F069FB05A8FFF740FFDFE7059820
:10429C00013003F075FD0028C1DB0598013003F0F7
:1042AC006FFD0E30C4B2BBE705A8FFF725FFF9E799
:1042BC0047F264739D424FD047F276739D4200F0F3
:1042CC00978047F261739D426FD00023CDE9013393
:1042DC0002220092728B19463AE00598013003F0E5
:1042EC004FFD0028BFDB0598013003F049FD0E306F
:1042FC00C4B2B9E705A8FFF7FFFEF9E73146484617
:10430C00FFF786FE28B141464846FFF781FE00289C
:10431C00B9D10121B4E70AAB4549079307A810238B
:10432C000025CDE90853FFF700FF07A82146FFF74A
:10433C0019FF204603F03AFB014607A8FFF724FFBC
:10434C00089BCDE90155013B0093079B2A4614219C
:10435C00304600F085FA13E005A8FFF7D7FE036896
:10436C009F420DD9A4B20121204603F0F5FA05A80D
:10437C00FFF7C2FE011E18BF0121204603F0FDFA13
:10438C000FB0BDE8F0830AAB079307A810232949A7
:10439C000025CDE90853FFF7C8FE07A82146FFF713
:1043AC00E1FE204603F015FBC6E705A8FFF7AEFEBD
:1043BC0003689F42E4D9A4B20121204603F0CCFA51
:1043CC0005A8FFF799FE0146204603F019FBD7E735
:1043DC0020468DF8284001F04BFF03460AA823B174
:1043EC00154A934201D09847CAE701F03DFFC7E751
:1043FC0005A8FFF78BFE059B8DF81C40A3EB09016C
:10440C00A8EB01012046CDE90A310C9101F03AFFED
:10441C0003460AA907A823B1084A934201D098473A
:10442C00AEE701F022FFABE760800B0063800B006E
:10443C006B800B006E800B0075620B0077620B00BB
:10444C0067800B002DE9F0418CB004AF04460522C7
:10445C000068391D02F0B1FBA8B3052804D0002078
:10446C002037BD46BDE8F081B7F8050001F0ACFF80
:10447C00A7F80500B7F8070001F0A6FFB7F805305C
:10448C00A7F807008046002BE9D03B7923BB01F04D
:10449C00E9FE0246E060607FB7F80730C0B9B7F8B4
:1044AC000510012914D1092B0FD0C82B01D0042BD6
:1044BC00D6D1012562612046657700F081FAFFF7BD
:1044CC000FFE01F0D3FE0120CAE703236377C7E791
:1044DC00581F18BF0120C3E7B0F5806F03D92046E1
:1044EC00FFF776FEEFE700F1080323F007036E46B3
:1044FC00ADEB030D04AD02462946206802F05DFBCE
:10450C0080454FF000007FD1B7F80730E85401F038
:10451C00A9FE3B79E060142B00F0A68048D80F2B45
:10452C0000F0A28007D8022B48D0062B51D0204691
:10453C00FFF74EFE58E0112BF9D100233B70B7F872
:10454C0007302B449D42C7E903534DD207F10C00B1
:10455C00D5F80080FFF7DAFDFB68B7F807105D1B94
:10456C004D1BC7E905357B68FD61C3F30F236383DE
:10457C00644B984500F0BF8000F28C80A3F57F233C
:10458C006FF400721344984500F09D8079D8A3F520
:10459C000033063B984500F09C8003F50033033351
:1045AC0098456BD107F11401384601F05EFE65E0C9
:1045BC00292B1BD0372B17D01D2BB8D1637F43B9B8
:1045CC0001236377204600F0FBF9FFF789FD01F02A
:1045DC004DFE0023C821B7F805200091CDE9013329
:1045EC001946204600F03CF901200DE0A3681BB9E8
:1045FC00402002F0EDF8A060B7F80780A8444545CC
:10460C00C7E9055802D30020B54629E729464022C0
:10461C00A06803F001FCA368002583F83F5007F164
:10462C001400FFF773FD036898451BD9786920B116
:10463C00BB69984214D203F0A7FB85B2206802F044
:10464C00FFFF2368A2685A631D870023637701F07C
:10465C0009FEA0F59C500838C4E903006061C3E76B
:10466C002846EAE75025E9E77B68B7F80720C3F34B
:10467C000F23638329462046FFF7B4FD0023638391
:10468C00B2E7214B9845F9D107F11401384601F0F6
:10469C00ECFDF3E71D4B984521D003F19F6303F527
:1046AC00003303F5807398451FD003F16E4303F577
:1046BC00302303F586739845E0D107F11401384691
:1046CC0001F0D3FDDAE707F11401384601F0CDFD16
:1046DC00D4E707F11401384601F0C7FDCEE707F126
:1046EC001401384601F0C1FDC8E707F11401384642
:1046FC0001F0BBFDC2E707F11401384601F0B5FD2E
:10470C00BCE700BF766673006462670061636F6E1E
:10471C002DE9F04104468CB00D46FFF7E1FC637FB8
:10472C00022B1ED0237F628B0133DBB22377AAB915
:10473C00022B13D8206802F04BFEA8B125B92068D3
:10474C0002F024FF00280FDD2046FFF77BFE002837
:10475C00F5D1206802F074FF01F088FD237F013B46
:10476C0023770CB0BDE8F08101F07CFD0546206894
:10477C0002F02EFE677F012F064624D120B9656119
:10478C002046FFF725FDE9E7E3684FF21862EB1AC4
:10479C009342F5D84AF6C872934203D82369EB1AB0
:1047AC009342DBD9636941F27072EB1A9342D5D90B
:1047BC000023CDE9013300931A460621204600F070
:1047CC004FF86561CAE7002FC8D16369EB1A40B195
:1047DC0041F270729342C1D9206802F031FF6777C1
:1047EC00BCE741F288329342B8D9206802F028FF26
:1047FC00D4F800C0DCF834E0BCF83880BEF1000F0F
:10480C001BD0334642467146604602F063FD0128D8
:10481C00D7D163680593012518462583FFF702FC61
:10482C000022CDE90122059B00902A461D2120463D
:10483C0000F016F82369636190E7084B06930CF1BE
:10484C0020070FCF07AE0FC63B6833704246734646
:10485C0006A9604602F01EFED9E700BFCC900B0003
:10486C002DE9F04F83B000AF044600683D6B8846DD
:10487C0016469946EB4602F0ABFD002800F081800D
:10488C00B8F11D0F04D84D4B23FA08F3DB0702D403
:10489C00637F012B75D146B9668B36B9238B0133F7
:1048AC009BB2002B72D02383268BA8F10C03082B10
:1048BC0016D8D4E90323934238BF134603F1420AB6
:1048CC0001F0D0FCAAEB0000002861DB002120469F
:1048DC00FFF71EFF01F0C6FCAAEB00000028F5DA7A
:1048EC00B9F1000F5BD06B1D7A6B002ABA6B08BF55
:1048FC00002203EB020A0AF1070323F00703ADEBD6
:10490C00030D30468DF80080C7F804D001F064FD2B
:10491C00BB6BADF80100E81880B201F05DFDADF89D
:10492C000300B9F1000F3CD0002D3AD02A4649467D
:10493C000DF1050003F02CFA681D7B6B3BB1BB6BD2
:10494C002BB11A467B68796B184403F021FA0025C9
:10495C0055452AD2AAEB05027B682068B2F5806F18
:10496C0028BF4FF48062591902F009FC064600205A
:10497C0001F076FCBEB9206802F062FE667701F0A9
:10498C0075FC0C37DD46BD46BDE8F08F01238AE788
:10499C00217F0029A4D12046FFF7BAFEA0E705230A
:1049AC00A2E70520C9E73544D2E703D02046FFF73C
:1049BC000FFCE6E701F056FC2061E2E74500002021
:1049CC0030B599B008AB044605930025402305A8E3
:1049DC000B49CDE90653FFF7A8FB05A80949FFF7DA
:1049EC00A4FB069B0293059B0193652300932A4627
:1049FC00054B11212046FFF733FF19B030BD00BF26
:104A0C0071800B0076800B00BC800B00F0B5ADF212
:104A1C00244D08AB002405460F46059305A84FF41A
:104A2C0080630E491646CDE90643FFF77EFB3946F7
:104A3C0005A8FFF797FB314605A8FFF793FB069BEC
:104A4C00013B0093CDE90144059B224614212846E5
:104A5C00FFF706FF0DF2244DF0BD00BF84800B0064
:104A6C0070B53448344D00F094FD34480021FFF704
:104A7C004FFE304800F0A6FD08B101232B702D48E5
:104A8C0000F0AAFD08B100232B702A482C4E00F030
:104A9C00ADFD18B1337883F00103337029482A4CEB
:104AAC0000F041FE00212060052002F066FF00218D
:104ABC00062002F062FF0021072002F05EFF23684F
:104ACC00312B4FF0010119DC052002F056FF317833
:104ADC0019B3FFF76BFB2B78C3B12468002C13DAE6
:104AEC002D21144801F0F6FF614212480A2202F00F
:104AFC0000F8BDE870400F4801F018BBB3F5C87F53
:104B0C00B4BF06200720E0E72146EEE70D4800F091
:104B1C000DFE0E4B01461860E7E72B7823B1226897
:104B2C000648FFF773FF70BD064800F0FFFD01213A
:104B3C000246F5E740E6032071E50320E0E503209B
:104B4C0070E50320B4E60320B0E603203CE6032026
:104B5C00F8B502F001FA4FF4165102F0F1F902F037
:104B6C00D1FF02F0BFFA02F0CDFF01462448254CDC
:104B7C0000F0D1FE224800F07AFE214800F054FEED
:104B8C001F4800F098FE0121052002F0E5FE0121EE
:104B9C00062002F0E1FE0121072002F0DDFE1A489A
:104BAC0000F0CEFC40F6B83001F05AFB174B6360B6
:104BBC0001F058FBA0F59C502368154A5A6308383D
:104BCC00C4E90300502260611A87002644F24F6743
:104BDC00206802F035FD667701F044FB0546637FE3
:104BEC00012B0CD001F03EFB401BB84204D8002135
:104BFC002046FFF78DFDF2E7637F012BE8D1F8BD6E
:104C0C00B4E60320E0E5032040E6032087800B0098
:104C1C00A8800B0010B5104C204602F05BFD04F18F
:104C2C001C0002F0E7F80D4B0021C3E90041C3E979
:104C3C000211C3E9041199619983012061632187F1
:104C4C0001F03AFD064800F034FDBDE8104005487F
:104C5C00072100F047BC00BF00E60320E0E503207D
:104C6C00B4E6032040E60320704710B5102104463B
:104C7C00FFF71FFA204610BD0EB403B503AB00219D
:104C8C0053F8042B019301F052FF02B05DF804EBD2
:104C9C0003B0704773B5044608462279A36832B155
:104CAC00A3B90B4902B0BDE8704001F00FBF094A2F
:104CBC00267B094D0949647B012E18BF2946CDE995
:104CCC0000140749FFF7D8FF02B070BD054AEFE7A3
:104CDC0034810B002B810B0030810B002C810B00DD
:104CEC004A810B0023810B002DE9F04F85B01F4644
:104CFC00BDF93880BDF83C30A8EB0209A7EB010ADE
:104D0C00B9F1000FB8BFC9F10009BAF1000FB8BF73
:104D1C00CAF1000AD14583460C46154604DD3A46D5
:104D2C002C4647460D469046BC4205DD2A46454674
:104D3C00904622463C4617463E1BB2B20092A8EB68
:104D4C00050282EAE271A1EBE271C6F3C03202FA0B
:104D5C0086F64545B4BF01224FF0FF320191761023
:104D6C000292BC421CDCDBF800200393D145D2F844
:104D7C001880C7BF294622462A4621465846C047B6
:104D8C00019A039BB61AB1B236B2002E05DA029A1A
:104D9C001544009A56182DB236B2013424B2E0E70D
:104DAC0005B0BDE8F08F704710B404682469A446C0
:104DBC005DF8044B604730B40468BDF808500295A8
:104DCC00A46BA44630BC604730B40468BDF80850EE
:104DDC000295E46BA44630BC604770B4BDF90C502E
:104DEC00BDF810600468CDE90356246CA44670BC71
:104DFC0060472DE9F3411C460368BDF820805B69D0
:104E0C0005461646013C34440F4624B298472B689D
:104E1C00CDF8048000949C6A28463B4632463946BD
:104E2C00A0472B68DB6A284602B0BDE8F041184762
:104E3C002DE9F3411D460368BDF820805B690446EB
:104E4C0017460E469847CDE9007822686B1E33440E
:104E5C00956A20461BB23A463146A8472368DB6A5E
:104E6C00204602B0BDE8F04118472DE9F3471E4635
:104E7C000368BDF928905B69BDF82C800C4605468B
:104E8C00174698472644B4422B680BDACDF80080BD
:104E9C00D3F820A021464B463A4628460134D04749
:104EAC0024B2F0E7DB6A284602B0BDE8F0471847A9
:104EBC0013B502680191B0F90E100091146CB0F9A1
:104ECC000C3000221146A04702B010BD2DE9F7436B
:104EDC0099421646BDF92870BDF82C9002688046A0
:104EEC000D461C4613D1BE42C8BF3346CDF82890A0
:104EFC00C4BF3E461F467B1C946B9B1B1BB23246A9
:104F0C0029464046A44603B0BDE8F0436047BE4284
:104F1C000AD19942C2BF0B4625461C46631CCDF8EC
:104F2C002890D46B5B1BE9E753699847CDE900796E
:104F3C00D8F8003040469F6A324623462946B84787
:104F4C00D8F80030DB6A404603B0BDE8F0431847A0
:104F5C002DE9F3471D460368BDF82C805B69BDF94C
:104F6C00289004460F46164698472368CDF80080D3
:104F7C00D3F824A032462B4639462046D047236826
:104F8C00CDF8008009F1FF323244D3F824A0394621
:104F9C002B46204612B2D0472368CDF80080D3F8B8
:104FAC0020A032464B4639462046D0476B1ED919B5
:104FBC002368CDF800801D6A20464B46324609B264
:104FCC00A8472368DB6A204602B0BDE8F0471847C3
:104FDC00704701F00303B0F90A208376C907B0F9D2
:104FEC00083059BF8381C2818281C3817047000020
:104FFC0030B54281C281074A074D0181002481816D
:10500C004FF0FF31C0E9051244600560046104777C
:10501C00046230BD0101000170860B002DE9F04FD8
:10502C0089B0CDE902120268BDF948800493BDF93C
:10503C004C3052690593BDF850A00446904718F1C6
:10504C0007024FF0000648BF08F10E024FEAE20BD0
:10505C0001963546039B019ABDF904109A18059BDD
:10506C008B4212B227DD049B33444FF000090693A8
:10507C000FFA89F080451FFA89F117DD4F0705BF3C
:10508C00069BC0106D001D5C18BFEDB22B060AD537
:10509C00029B206807921944836909B21F46204677
:1050AC005346B847079A09F10109E1E7019B01331F
:1050BC0001935E44CEE72368DB6A204609B0BDE865
:1050CC00F04F18472DE9F04F2DED028B91B016469D
:1050DC00026ABDF874809DF878509DF87C4003916D
:1050EC001F46BDF8703004938346002A40F0C580FB
:1050FC00B0F90C308B4240F34C81B0F90E30B34216
:10510C0040F34781062313FB0513002B40F3418129
:10511C0006EBC403002B40F33C81037F1BB9AF2F7C
:10512C0084BF0137FFB2DBF8003058465B69984703
:10513C000522099200220592984A07EB8703D3189F
:10514C000C93B3B20693059A0C9B9B5C0793ABB282
:10515C000B93BDF80C300893039B02FB05F919FA6D
:10516C0083F90FFA89F308EE103A08230A93039B8C
:10517C0002EB030A4FF000090FFA8AFA079ADBF8E0
:10518C000030D20752D5012D1FFA89F23ED1012CE5
:10519C003CD19B6906991F46049B0A4412B25146A6
:1051AC005846B84709F101034FFA83F9079B5B088E
:1051BC0007930A9B013B13F0FF030A93DED1059F73
:1051CC0001377BB20593099B013B13F0FF03099355
:1051DC00B9D1049B43450FD0012DDBF800303BD1F6
:1051EC00012C39D10899CDF8008005311C6A324662
:1051FC00082309B25846A047DBF80030DB6A584652
:10520C0011B0BDEC028BBDE8F04F1847069914FBAA
:10521C0002F20A44049901910094DB6918EE101A09
:10522C001F4612B22B465846B847BBE7049A424574
:10523C00B8D0012D1FFA89F207D1012C05D19B6939
:10524C0006991F460A444346A8E70699CDF8048000
:10525C0014FB02F20A44DFE70B9ACDF8048002EB50
:10526C008201089AE4000A4411460094DC69324633
:10527C002B4609B25846A047BEE7137A516812680C
:10528C000B92FF1AFFB201EBC70331F837200692DD
:10529C009A780992DA780C92012D93F9052093F9FA
:1052AC0006A00A9201D8012C57D9BDF928300893D1
:1052BC000FFA8AF30793DBF8003058465B6998477E
:1052CC00B3B24FF000080E931AFA86F3C146474664
:1052DC000F930C9B9F428FD2079B0E9A3B4403FB70
:1052EC000423002205920F9A1BB202EB070A08EE68
:1052FC00103A0FFA8AFA4346099A0599914241D21B
:10530C005A1CD2B25B070D9207D1069B06990B9AD9
:10531C0001339BB212F80190069319F0800F12D052
:10532C00012DDBF80030BDF80C101AD1012C18D16E
:10533C000A9A9B691144059A11441E465246049BD5
:10534C0009B25846B047059E0136F3B24FEA4909F7
:10535C0005935FFA89F90D9BCEE70023CDE907335E
:10536C00A9E70598089A024402FB0511049ACDE9B5
:10537C000042DB6918EE102A1E4609B22B4658462D
:10538C00B047E0E7099B013798445FFA88F8FFB211
:10539C009FE711B0BDEC028BBDE8F08F67810B006D
:1053AC00F0B5026A85B004460B46002A34D10A29AE
:1053BC0008D1438A0282427E03EBC203638201203E
:1053CC0005B0F0BD0D29FAD0E17E007E657E71B18D
:1053DC00B4F91060062111FB0061B4F90C60B14204
:1053EC00C1BFB4F91210228201EBC5026282E28ABB
:1053FC000192A28A0092CDE90205B4F91220B4F907
:10540C0010102046FFF75EFE237E228A03EB430337
:10541C0002EB43032382D2E70A2907D1002303823C
:10542C00417E927A438A01FB0233C7E70D29C6D02D
:10543C00157AA942C3D3517A9942C0D351685D1BE6
:10544C00EDB201EBC505A87828B3E97819B3E17E74
:10545C00267E677E91B195F905100844B4F91010B9
:10546C0006FB0011B4F90C00814207DD00202082FC
:10547C00B4F91210927A02FB07126282E28A01924C
:10548C00A28A0092CDE90267B4F91220B4F9101087
:10549C002046FFF717FE2979227E238A01FB02336F
:1054AC00B8E7012938BF0121017641767047000029
:1054BC0010B5064B03600446006D08B100F064FFA4
:1054CC00204600F053FA204610BD00BFC8860B00E2
:1054DC0010B50446FFF7ECFF20467021FEF7E9FDFE
:1054EC00204610BD30B585B004460D4602F00AFBCF
:1054FC00104A1149CDE901214FF0FF3280210346BA
:10550C0000922046202200F0A9FA0C4B23600023C5
:10551C00C4E9143504F1580000F072F804F160008D
:10552C0000F06EF804F1680000F06AF8204605B04F
:10553C0030BD00BF801A0600A0860100C8860B0093
:10554C0013B50446503000F017FF636DD90705D52D
:10555C000222042104F1580000F066F8636D9A07EA
:10556C0005D50022032104F1600000F05DF8636DA5
:10557C005B0705D50222114604F1680000F054F8CF
:10558C00012300933C220221204600F06FFB02B065
:10559C0010BD10B5436DD907044602D5583000F044
:1055AC0050F8636D9A0703D504F1600000F049F8D8
:1055BC00636D5B0705D504F16800BDE8104000F091
:1055CC0040B810BD436D024613F0010003D002F148
:1055DC00580000F066B87047436D024613F00200A5
:1055EC0003D002F1600000F05CB87047436D0246D6
:1055FC0013F0040003D002F1680000F052B87047B9
:10560C0000210A22C0E900127047002310B504469D
:10561C00C171837188B202F0C9F908B10323A37177
:10562C0000F0A2FE206010BD38B50C4605461146B0
:10563C00A0B202F091F921462846BDE83840FFF7A8
:10564C00E4BF38B50446C07902F0B0F9A57900384A
:10565C0025F0080318BF0120C5F340058542A3714E
:10566C000AD000F081FEA379206083F00203A371BD
:10567C00A079C0F3C00038BD00F076FE2368C01AD4
:10568C00A3889842F4D3A37903F00103AB42EFD083
:10569C0000F06AFEA379206083F0010343F0080355
:1056AC00E5E7807900F00900A0F108035842584161
:1056BC007047704710B504466021006801F044FD46
:1056CC00206801F04CFDB0FA80F0400910BD38B5EF
:1056DC0005460C460068602101F036FD2868036819
:1056EC0021469B6898472868002101F034FD08B1D9
:1056FC00002038BD28680222602101F022FD2868B4
:10570C0003681B6998470028F2D0286803685B6916
:10571C0098470446286803685B699847E4B244EAF2
:10572C00002080B2E5E70821FFF7D1BF0921FFF780
:10573C00CEBF0C21FFF7CBBF70B504460E460068F8
:10574C006021154601F000FD2068036831469B6816
:10575C00984720680368E9B29B68984720680368FB
:10576C00290A9B689847206801F0F9FCB0FA80F090
:10577C00400970BD70B504460D461646FFF7A7FFED
:10578C0000F47F4040EA060229462046BDE87040FE
:10579C00FFF7D2BF70B504460D461646FFF797FFCC
:1057AC00C0B240EA062229462046BDE87040FFF709
:1057BC00C3BF08B5FFF78BFFC0F3072008BD2DE969
:1057CC00F04104469DF818700D46984616466AB18D
:1057DC00FFF77DFFC0B200EA080343EA070229463F
:1057EC00204636B1BDE8F041FFF7C4BFFFF7E1FF3B
:1057FC00F1E7BDE8F041FFF7CDBFB1F5A07F07B5EC
:10580C000ED29F290ED84F298CBF40230023009322
:10581C0001223F230321FFF7D2FF03B05DF804FB05
:10582C00C023F4E78023F2E707B500210091FE23A3
:10583C000122FFF7C4FF03B05DF804FB072907B58D
:10584C000FD803290FD810D002290CBF0423002332
:10585C0000930122F1230321FFF7B1FF03B05DF8A0
:10586C0004FB0E23F4E70C23F2E70823F0E707B55B
:10587C00002300930122FE230321FFF7A0FF03B0B6
:10588C005DF804FB07B50F298CBF08230023009398
:10589C000022F7230321FFF792FF03B05DF804FB0E
:1058AC0007B5022300930122EF230421FFF787FFA2
:1058BC0003B05DF804FB07B5002200927F2304219E
:1058CC00FFF77DFF03B05DF804FBC72907B516D8B9
:1058DC00B32916D89F2916D88B2916D8772916D80C
:1058EC00632916D84A2994BF002101210091F8237D
:1058FC0000220421FFF763FF03B05DF804FB0721CE
:10590C00F4E70621F2E70521F0E70421EEE7032195
:10591C00ECE70221EAE738B504460846216001F0BD
:10592C00E1FB2046FFF7C6FE054610B900252846C8
:10593C0038BD2046FFF7FDFEB0F5C37FF6D12046FB
:10594C00C821FFF7C2FF20462821FFF756FF20464B
:10595C000821FFF773FF10212046FFF793FF204625
:10596C00FFF79EFF2046FFF782FFE0E710B5044BE0
:10597C0003600446C06A08B100F032FF204610BD37
:10598C00D48B0B0010B50446FFF7F0FF20465021D6
:10599C00FEF78FFB204610BD002910B54BDBB0F98C
:1059AC000C408C4247DD002A45DBB0F90E40944296
:1059BC0041DD847E022C1FD0032C26D0012C04D177
:1059CC000489D24314440A4621B2012B23D0022B62
:1059DC0032D083BB002A13460489C06AB8BFD31DDA
:1059EC00DB1013FB041102F0070201239340425C0D
:1059FC0022EA030242541EE00489013C611A4489E4
:105A0C00D243224409B212B2DFE74489013C641A42
:105A1C00114622B2D9E7002A04891346B8BFD31D18
:105A2C00DB1013FB0411C36A02F007000122824051
:105A3C00585C02435A5410BD002A13460489C06AAC
:105A4C00B8BFD31DDB1013FB041102F007020123B6
:105A5C0003FA02F2435C5A40CCE7000070B50446EE
:105A6C001D460026FFF7C4FA114B2360666215B978
:105A7C0002F048F80546FF2384F8333084F83630BA
:105A8C009DF9103084F837300A4BA363012384F856
:105A9C003C30059BA3644FF6FF72069BA286C4E9BB
:105AAC000A562664A4F84460E364204670BD00BF27
:105ABC00D48B0B0020870B00F8B50446806A0D468A
:105ACC0090B194F9301001F043FBA06A03680021F7
:105ADC009B689847A06A036829469B689847A06A08
:105AEC00BDE8F84001F03BBB94F93530014698B263
:105AFC0001F043FF606A20B12946BDE8F84000F090
:105B0C0089BF0826802794F9330005EA070180B283
:105B1C0001F033FF94F93400012180B201F02DFF24
:105B2C0094F93400002180B201F027FF013E4FEAC6
:105B3C005707E8D1F8BD38B50446806A0D4680B1E8
:105B4C00A16C01F0CBFA002D204614BFA721A62191
:105B5C00FFF7B2FFA06A88B1E16CBDE8384001F0F4
:105B6C00BDBA606A18B104F1380100F0E5FE94F991
:105B7C003600002180B201F000FFE4E794F9360012
:105B8C00012180B201F0F9FE606A18B1BDE838401D
:105B9C0000F0B8BE38BD2DE9F8430446806A0D46C6
:105BAC008F1840B394F9301001F0D2FAA06A036850
:105BBC0000219B6898470126AF42A06A17D01F2E80
:105BCC000CD901F0CCFA94F93010A06A01F0C0FAAB
:105BDC00A06A036800219B6898470126A06A15F803
:105BEC00011B036801369B689847F6B2E4E7BDE8F1
:105BFC00F84301F0B4BA94F93530014698B201F08B
:105C0C00BCFEBD4222D0606A15F8019B18B1494612
:105C1C0000F000FFF5E708264FF0800894F93300F8
:105C2C0009EA080180B201F0A8FE94F934000121C0
:105C3C0080B201F0A2FE94F93400002180B201F090
:105C4C009CFE013E4FEA5808E8D1DAE7BDE8F8833C
:105C5C00B0F90A30DA1D48BF03F10E02B0F9083072
:105C6C00C06AD2105A43002102F0A0B82DE9FF41BE
:105C7C001E46C36A9DF8288004460F461546C3B1DC
:105C8C002046FFF7E5FFB4F90A00B4F90810202804
:105C9C0021DC202301222038CDE9013200EBD07029
:105CAC0073237339009301EBD171894B40F34F028D
:105CBC0021E0B0F90A30D81D48BF03F10E00B4F949
:105CCC000830C010584300F083FDE0620028D7D1A3
:105CDC0004B0BDE8F0814038C0F3C03202FA80F263
:105CEC0040230120CDE90130522352390093794BE6
:105CFC0001EBD1715210204641F34F01FFF78EF9A1
:105D0C00A06A84F83170002878D0002D74D1B4F9D1
:105D1C000A30202B0CBF3C253D2584F83050B8F1BF
:105D2C00000F01D001F0DEF9FEB194F93700002824
:105D3C001BDB012180B201F00FFE94F93700012129
:105D4C0080B201F01AFE012000F05EFF94F93700DA
:105D5C00002180B201F011FE0A2000F055FF94F9E9
:105D6C003700012180B201F008FEA06A002874D02F
:105D7C00A16C01F0B3F9042257492046FFF70BFF41
:105D8C0061890139C9B22046FFF796FE53490422B6
:105D9C002046FFF700FF94F93130012B0CBF102186
:105DAC0014212046FFF788FE04224D492046FFF7B8
:105DBC00F2FEA3684B4A93425CD14B490422204625
:105DCC00FFF7E9FED9212046FFF776FE94F9313032
:105DDC00012B0CBF2221F1212046FFF76DFE20463E
:105DEC0042490622FFF7D7FEA06A002863D0E16C77
:105DFC0001F074F901206BE76DB28EE794F9350070
:105E0C00012180B201F0A8FD94F93600012180B285
:105E1C0001F0A2FD94F93600012180B201F0ADFD34
:105E2C00656A3DB1B8F1000F3FF47EAF284600F033
:105E3C0055FD79E794F93300012180B201F08CFD16
:105E4C0094F93400012180B201F086FD94F93400FC
:105E5C00294680B201F091FD66E7606A18B104F141
:105E6C00380100F069FD94F93600002180B201F090
:105E7C0084FD80E71E4A93420ED11E490322204620
:105E8C00FFF789FE94F93130012B0CBF9F21CF21F4
:105E9C002046FFF711FE95E7174A934292D1174916
:105EAC0003222046FFF777FE94F93130012B0CBF0B
:105EBC001021AF21ECE794F93600012180B201F0FA
:105ECC005CFD606A002895D000F01CFD92E700BFD5
:105EDC00EC890B002C870B00348C0B00388C0B00DE
:105EEC003C8C0B0080002000468C0B00408C0B007F
:105EFC00800040004A8C0B00600010004D8C0B00A1
:105F0C0070B5002ABDF810503DDBB0F90A40944240
:105F1C0039DD0029BEBF5B181BB20021B0F9084067
:105F2C00CE18A642C4BF631A1BB2002B2BDDC06A6D
:105F3C00D61014FB0611014402F007000122824026
:105F4C00012DD2B216D0022D0BD0E5B9D243D2B26C
:105F5C000B44994217D011F8010B104001F8010CB9
:105F6C00F7E70B4499420ED011F8010B504001F8A1
:105F7C00010CF7E70B44994205D011F8010B1043C3
:105F8C0001F8010CF7E770BDF0B50029BDF814500D
:105F9C0076DBB0F90860B14272DA002ABEBF9B18FA
:105FAC001BB20022B0F90A40D718A742C4BFA31AEB
:105FBC001BB2002B64DDC2F3C404C76A16FB0416C3
:105FCC0012F00702DBB207EB060423D0C2F1080281
:105FDC00D2B22D4993423CBF4FF0FF0CA2EB030E03
:105FEC00895C3CBF4CFA0EFC0CEA0101012D07D078
:105FFC00022D2ED04DB917F806C02CEA010103E092
:10600C0017F806C041EA0C01B955934238D3B0F9E0
:10601C0008100C449A1AD2B2072A0ED9022D1DD19F
:10602C0013462178C9432170083BB0F90810DBB244
:10603C00072B0C44F5D802F007020AB3134B012DC1
:10604C009B5C1AD0022D1CD0D5B9227822EA03030E
:10605C0015E017F806C081EA0C01D5E7291E18BF18
:10606C0001214942C9B213462170083BB0F90860BE
:10607C00DBB2072B3444F7D8DDE7227813432370C7
:10608C00F0BD22785340FAE7248C0B002C8C0B00CB
:10609C0070B41446827EBDF80C60022A0DD0032A1F
:1060AC0018D0012A11D10289E443144424B2039676
:1060BC000A46214670BCFFF767BF42890589E44355
:1060CC0019441444691A24B209B20396224670BCCE
:1060DC00FFF716BF45891944691A09B2E7E730B4CE
:1060EC001446827EBDF80850022A0DD0032A18D01F
:1060FC00012A11D1E2180489A41A24B202950A4685
:10610C00214630BCFFF7FCBE0289C9431144E2189A
:10611C004489A41A09B224B20295224630BCFFF776
:10612C0033BF4289C943114409B2E7E72DE9F8436B
:10613C000446806A002842D0A16C00F0CFFF47498A
:10614C0005222046FFF727FD218901392046C9B2D7
:10615C00FFF7B2FCB4F90A30DE1D48BF03F10E069E
:10616C00D4E90A052389F61013FB06F615FA86F610
:10617C0000283AD094F9301000F0EAFFA06A0368C6
:10618C0040219B6898470127B542A06A24D01F2F55
:10619C000CD900F0E4FF94F93010A06A00F0D8FF9D
:1061AC00A06A036840219B6898470127A06A15F8EC
:1061BC00011B036801379B689847FFB2E4E7606AEC
:1061CC0018B104F1380100F0B7FB94F93600002146
:1061DC0080B201F0D2FBB2E700F0C1FFA06A78B345
:1061EC00E16CBDE8F84300F079BF94F9350001216A
:1061FC0080B201F0C2FBAE42F0D0606A15F8019B90
:10620C0018B1494600F006FCF5E708274FF0800866
:10621C0094F9330009EA080180B201F0AEFB94F95D
:10622C003400012180B201F0A8FB94F93400002164
:10623C0080B201F0A2FB013F4FEA5808E8D1DAE73F
:10624C0094F93600012180B201F097FB606A18B115
:10625C00BDE8F84300F056BBBDE8F883508C0B004A
:10626C0000F0D2BC00F080B8704770477047000057
:10627C0003065ABF024B53F820000020704700BFA2
:10628C00588C0B0003065ABF024B53F82000002019
:10629C00704700BF588E0B0008B5024B1B689B68FB
:1062AC00019308BD6802030008B5024B1B68DB684C
:1062BC00019308BD6802030008B5024B1B685B68BC
:1062CC00019308BD2C02030008B5024B1B689B68A8
:1062DC00019308BD2C02030008B5024B1B68DB6858
:1062EC00019308BD2C02030008B5024B1B681B6907
:1062FC00019308BD2C02030008B5024B1B685B69B7
:10630C00019308BD2C02030008B5024B1B689B6A65
:10631C00019308BD2C02030008B5024B1B681B6BD4
:10632C00019308BD2C02030008B5024B1B689B6F40
:10633C00019308BD2C02030008B5024B1B685B6976
:10634C00019308BD6C02030008B5024B1B685B6827
:10635C00019308BD1802030008B5024B1B68DB68EB
:10636C00019308BD1802030008B5024B1B685B695A
:10637C00019308BD1802030008B5024B1B681B6B88
:10638C00019308BD4802030008B5024B1B685B6B08
:10639C00019308BD4802030008B5024B1B685B6CF7
:1063AC00019308BD4802030008B5024B1B685B69EA
:1063BC00019308BD6402030008B5024B1B681B6AFD
:1063CC00019308BD6402030008B5024B1B685B6AAD
:1063DC00019308BD6402030008B5024B1B689B6A5D
:1063EC00019308BD6402030008B5024B1B68DB680F
:1063FC00019308BD3C02030008B5024B1B681B69E6
:10640C00019308BD3C02030008B5024B1B685B6995
:10641C00019308BD3C02030008B5024B1B689B6945
:10642C00019308BD3C02030008B5024B1B68DB69F5
:10643C00019308BD3C02030008B5024B1B681B6AA4
:10644C00019308BD3C02030008B5024B1B689B6A14
:10645C00019308BD3C02030008B5024B1B681B6C82
:10646C00019308BD3C02030008B5024B1B681B6876
:10647C00019308BD2802030008B5024B1B68DB68BA
:10648C00019308BD2802030008B5024B1B689B69E9
:10649C00019308BD2802030008B5024B1B68DB6999
:1064AC00019308BD2802030008B5024B1B681B6A48
:1064BC00019308BD2802030008B5024B1B685B6AF8
:1064CC00019308BD2802030008B5024B1B689B6AA8
:1064DC00019308BD2802030008B5024B1B68DB6A58
:1064EC00019308BD2802030008B5024B1B681B6B07
:1064FC00019308BD2802030008B5024B1B685B6BB7
:10650C00019308BD2802030008B5024B1B681B6CE5
:10651C00019308BD2802030008B5024B1B681B6DD4
:10652C00019308BD2802030008B5024B1B689B6948
:10653C00019308BD3802030008B5024B1B68DB69E8
:10654C00019308BD3802030008B5024B1B681B6A97
:10655C00019308BD3802030008B5024B1B689B6A07
:10656C00019308BD3802030008B5024B1B681B6B76
:10657C00019308BD3802030008B5024B1B689B6BE6
:10658C00019308BD3802030008B5024B1B681B6859
:10659C00019308BD3002030008B5024B1B685B6910
:1065AC00019308BD3002030008B5024B1B68DB6980
:1065BC00019308BD3002030008B5024B1B681B6A2F
:1065CC00019308BD3002030008B5024B1B685B6ADF
:1065DC00019308BD3002030008B5024B1B68DB6B4E
:1065EC00019308BD3002030008B5024B1B681B6CFD
:1065FC00019308BD3002030008B5024B1B685B6CAD
:10660C00019308BD3002030008B5024B1B681B68E0
:10661C00019308BD4C02030008B5024B1B685B6874
:10662C00019308BD4C02030008B5024B1B681B69A3
:10663C00019308BD4C02030008B5024B1B685B6953
:10664C00019308BD4C02030008B5024B1B689B6903
:10665C00019308BD4C02030008B5024B1B68DB69B3
:10666C00019308BD4C02030008B5024B1B681B6A62
:10667C00019308BD4C02030008B5024B1B685B6B11
:10668C00019308BD6002030008B5024B1B681B6D2B
:10669C00019308BD6002030008B5024B1B685B68E0
:1066AC00019308BD2002030008B5024B1B685B690F
:1066BC00019308BD2002030008B5024B1B68DB6A7E
:1066CC00019308BD2002030008B5034B1B68D3F8E7
:1066DC008830019308BD00002002030008B5034B6D
:1066EC001B68D3F89430019308BD0000200203000E
:1066FC0008B5024B1B685B68019308BD40020300A0
:10670C0008B5024B1B689B68019308BD400203004F
:10671C0008B5024B1B68DB68019308BD40020300FF
:10672C0008B5024B1B681B69019308BD40020300AE
:10673C0008B5024B1B685B69019308BD400203005E
:10674C0008B5024B1B689B69019308BD400203000E
:10675C0008B5024B1B68DB69019308BD40020300BE
:10676C0008B5024B1B681B6A019308BD400203006D
:10677C0008B5024B1B681B6B019308BD400203005C
:10678C0008B5024B1B685B6B019308BD400203000C
:10679C0008B5024B1B681B6C019308BD400203003B
:1067AC0008B5024B1B685B6C019308BD40020300EB
:1067BC0008B5024B1B689B68019308BD440203009B
:1067CC0008B5024B1B68DB6B019308BD4402030048
:1067DC0008B5024B1B681B68019308BD1C02030023
:1067EC0008B5024B1B685B68019308BD1C020300D3
:1067FC0008B5024B1B68DB69019308BD1C02030042
:10680C0008B5024B1B685B6A019308BD1C020300B0
:10681C0008B5024B1B68DB6B019308BD1C0203001F
:10682C0008B5024B1B681B6C019308BD1C020300CE
:10683C0008B5024B1B685B6C019308BD1C0203007E
:10684C00002240681146FFF78BBF002240681146BA
:10685C00FFF796BF40680022FFF78ABF406800220E
:10686C0081F00101FFF774BF002340681A461946F6
:10687C00FFF766BF002340681A461946FFF758BF5A
:10688C00002240681146FFF74BBF002240681146BA
:10689C00FFF736BF406800220221FFF739BF002303
:1068AC0040681A46FFF724BF024B03225A60024A83
:1068BC001A607047C4E6032060900B000021FFF7BC
:1068CC009BBE0021FFF790BE10B504460846217010
:1068DC00FFF76AFE00236360204610BD13B5044623
:1068EC000078FFF7EEFF58B9207801904FF6FF7152
:1068FC00FFF74AFE019802B0BDE81040FFF7DEBF7B
:10690C0002B010BD0078FFF7D9BF0000400830B5C9
:10691C001860002418688842E5B206D90134082CA6
:10692C0002D040081860F5E70725024B5B5D137039
:10693C0030BD00BF94900B002DE9F04306468FB09C
:10694C0000780C46FFF7BDFF00281BDB35781422BE
:10695C00002109A801F02AFA0B23002209A92846D4
:10696C00ADF82430FFF730FE9DF82D3013B19DF8B3
:10697C002C5055B10027B946B846012523795DB195
:10698C00C3B100200FB0BDE8F083DDF830809DF876
:10699C0034909DF83570F1E7002B35D1A368434551
:1069AC0008D18DF820908DF82170BDF82020A38996
:1069BC009A42E6D00023A1688DF80F300A9804ABF8
:1069CC000DF10F02FFF7A2FF217985B989B9A368F0
:1069DC0043450ED38DF820908DF82170BDF8202002
:1069EC00A3899A4205D1049B434502D1C9E70029EA
:1069FC00F9D100230193637B00939DF80F20237B37
:106A0C003078FFF7E9FDBCE7CDE900552B462A4667
:106A1C000121F5E708B50078FFF7BEFDC0B208BD4F
:106A2C00054B02221A60054B054A9A600020C3E907
:106A3C000000FFF731BE00BFD8E60320CCE60320F0
:106A4C000000FFFF10B54368013B0446436063B987
:106A5C0003689B689847A368013BA3602BB9236824
:106A6C002046DB68BDE81040184710BD02480023E3
:106A7C000360FFF791BC00BFDCE60320F8B50646C7
:106A8C000D468F180024BD420CD0336815F8011B3D
:106A9C009B6830469847031E01DB1C44F3E7002C2F
:106AAC0008BF1C462046F8BD13B50446084659B12C
:106ABC000191FDF7B7FA23680199DB68024620467D
:106ACC0002B0BDE81040184702B010BD08B5FFF782
:106ADC00EBFF08BD03689B68184738B50D210546C8
:106AEC00FFF7F8FF0A2104462846FFF7F3FF20447E
:106AFC0038BD30B58BB00023012A8DF8243098BFF7
:106B0C000A2209AC0D46B1FBF2F101FB125303F062
:106B1C00FF03092B94BF30333733DBB2AA4204F89E
:106B2C00013DEFD92146FFF7BFFF0BB030BD2DE97A
:106B3C00F04186B000AF05460E46381D14211446B0
:106B4C003B60FFF75DFE13280ED8391D2846FFF772
:106B5C00ABFF04461EB12846FFF7BFFF0444204696
:106B6C001837BD46BDE8F08100F1080323F0070398
:106B7C00E846ADEB030D2246411C3B686846FFF727
:106B8C003FFE69462846FFF78FFF0446C546E1E7FE
:106B9C0010B50446FFF7E8FBE060236820465B690C
:106BAC009847002808DAFFF7DFFBE368C01AA368F0
:106BBC009842F2D34FF0FF3010BD2DE9F04107465B
:106BCC000C468E180D46B542A5EB040807D0384686
:106BDC00FFF7DEFF031E02DB05F8013BF3E740463F
:106BEC00BDE8F081014B024A1A607047E0E60320D1
:106BFC00A4900B00024B1A68024B1A60704700BF3E
:106C0C0074E50320E4E603200021FFF74DBD0000EE
:106C1C0010B5044B03600446806908B1FFF712FFFE
:106C2C00204610BD9C910B0010B50446FFF7F0FFF9
:106C3C0020461C21FDF73DFA204610BD014B0022D9
:106C4C009A607047E8E60320014B1860704700BF5C
:106C5C0078E5032008B50B4B43B100F07DF90368D0
:106C6C001B699847002801DDAFF30080064B43B148
:106C7C0000F008FF03681B699847002801DDAFF39B
:106C8C00008008BD000000000000000008B5FFF700
:106C9C00E1FFFFF769FB014B186008BD40E70320DB
:106CAC000548064A064908B5121A01F071F8054B59
:106CBC00054A1A6008BD00BF00F4032004F4032049
:106CCC009C950B0000F403201E1C279A07B500238B
:106CDC0000931A466FF07701FFF700FD03B05DF8E3
:106CEC0004FB000007B543880A2B08D0502B0BD1AE
:106CFC00094B1B684BB103B05DF804EB1847FFF769
:106D0C00E5FF03B05DF804FB002300931A466FF017
:106D1C007701FFF7E3FCF4E7FCE6032010B512481B
:106D2C000021FFF785FD114B1A68114B9A42114B4C
:106D3C000CBF012200221A7001D0FFF7B1FFFFF740
:106D4C0003FB044601F03AF80B4B13B12046AFF3AA
:106D5C00008000210848FFF733FDBDE810400748CC
:106D6C000021FFF7B1BC00BF556C0B0000F40320F1
:106D7C001E1C279AF8E6032000000000F16C0B00A3
:106D8C00704710B518210446FDF793F9204610BD45
:106D9C00F0B5037D062B8DB00E4600F104074FF0C5
:106DAC00000412D000F1080515F8011D0A22304626
:106DBC00FFF79FFEAF42044419D0002CF4D02E21D3
:106DCC003046FFF787FE0444EEE72F236A46394628
:106DDC000A208DF80040FFF7E7FA6846FDF722F924
:106DEC0033680246DB6869463046984704462046BD
:106DFC000DB0F0BD10B5054B0446112240F8043B14
:106E0C00002100F0D3FF204610BD00BFCC900B003A
:106E1C000346074A10B543F8042B01F1100251F850
:106E2C00044B43F8044B9142F9D10A781A7010BD07
:106E3C00CC900B00037D042B04D14068003818BFA4
:106E4C0001207047062B07D143683BB983682BB9E7
:106E5C00C3681BB90069F1E7002070470120704737
:106E6C0010B59DF8084044EA032343EA024242EA83
:106E7C00016104234160037510BD000007B5064B8A
:106E8C000360CB7800938B784A780978FFF7E8FF9A
:106E9C0003B05DF804FB00BFCC900B00417470474D
:106EAC007047704708B50021007CFFF7CDFB40EA26
:106EBC00E07008BD08B50121007CFFF7C5FB40EA76
:106ECC00E07008BD08B5007CFFF7B6FB20EAE07067
:106EDC0008BD08B5007CFFF7A7FB20EAE07008BDF1
:106EEC0013B50446007C0191FFF7A6FB002801991D
:106EFC0001DC607C20B1207CFFF7AEFB20EAE07067
:106F0C0002B010BD007CFFF7AFBB10B514210446D6
:106F1C00FDF7CFF8204610BD10B54FF47A73044638
:106F2C0008460021C4E90113044B2360012320749B
:106F3C0063741146FFF768FB204610BDE0900B0010
:106F4C00007C0022FFF768BB10B514220446002118
:106F5C0000F02CFF204610BD10B50F4C88B003A8D4
:106F6C00FFF7F2FF2178BFF35B8F11F001010FD116
:106F7C0020460191FDF7ACF8019948B103AA0748E6
:106F8C00FFF7CAFF2046FDF7A8F8054800F0F2FE0F
:106F9C00024808B010BD00BF00E7032004E703203F
:106FAC00AD6E0B0070474174704708B5007CFFF75D
:106FBC004BFA20EAE07008BD08B5007CFFF71CFA1C
:106FCC0020EAE07008BD08B5007CFFF725FA40EA1E
:106FDC00E07008BD08B5007CFFF716FA40EAE070D7
:106FEC0008BD007CFFF720BA37B5457C04462DB1AF
:106FFC00207C03B0BDE83040FFF7F6B9007C01916E
:10700C00FFF722FA00280199F2DC284603B030BDC4
:10701C0010B514210446FDF74CF8204610BD0000B5
:10702C0010B54FF47A730446084611460022C4E9A1
:10703C000123044B2360012320746374FFF70CFAC3
:10704C00204610BD10910B007047F8B5064615464A
:10705C000C468F18BC4206D0336814F8011B9B6891
:10706C0030469847F6E72846F8BD007C0022FFF72B
:10707C001BBA007C0021FFF71FBA007C0021FFF730
:10708C0023BA007C0021FFF727BA007C0021FFF710
:10709C002BBA10B514210446FDF70BF8204610BD91
:1070AC0038B5044615464FF47A730022C4E901231F
:1070BC00094B2174084623602946FFF725FABF3097
:1070CC0008D16B69DB0705D56868FFF789FBE868B1
:1070DC00FFF786FB204638BD40910B00007C002258
:1070EC00FFF7C2B90023007C1A461946FFF7C4B952
:1070FC007FB500221423CDE90122ADF804300B78C2
:10710C008DF808304B680393CB680493007C0B7AA2
:10711C00059301A9FFF700FA07B05DF804FB1FB552
:10712C00003B8DF800104FF06401039118BF012350
:10713C00694601928DF80830FFF7DAFF05B05DF86B
:10714C0004FB0123FFF7EBBF007C0022FFF79CB987
:10715C00C9B2FFF7F9BF007C0022FFF79DB90121EE
:10716C00FFF7F9BF13B503688DF80710DC6B01222C
:10717C004FF0FF330DF10701A04702B010BD10B462
:10718C000368DC6B4FF0FF33A4465DF8044B60479B
:10719C0013B5134602688DF80710D46B0DF1070177
:1071AC000122A04702B010BD10B54369B3F8862088
:1071BC00B3F884309A42044608D06369B3F884204B
:1071CC00511CA3F884101344187910BD03681B6973
:1071DC0098470028F1D14FF0FF30F6E7704743692C
:1071EC001868C043C00F704770470000064B9942A7
:1071FC0010B500F10C0405D0084600F0A9FC0028DD
:10720C0008BF0024204610BD9C900B0010B5AC218B
:10721C000446FCF74EFF204610BDAC21FCF749BFDD
:10722C002DE9F0414FF0000886B01C46C0F80480F0
:10723C0005460E4617464146102202A800F0B6FD40
:10724C00631C09D04FF47A73B4FBF3F203FB1244C2
:10725C00CDE902285C43049468691023009300680C
:10726C0002AB41F2050240F6FF71FFF75DF9002811
:10727C0007DAFFF7CDFA03686B60002006B0BDE8B3
:10728C00F0816869002300683A463146FFF76CF9D3
:10729C00031EEEDB1846F1E730B587B0044601ADAE
:1072AC006846FFF7EBFD0FCD04340FC42B68237039
:1072BC0007B030BD70B54D69054B04468C3544F8AC
:1072CC00043B06460FCD0FC42B682370304670BDAF
:1072DC00CC900B002DE9F0439846036893B00D4613
:1072EC000024DB6A06461746984728466B4622461A
:1072FC0021460094FEF7D8FF0546002863D1009B79
:10730C00002B4BD05B69002B48D006A8FFF772FD11
:10731C00009B5C696378022B04D1211D06A8FFF742
:10732C00BBFF26E00A2B24D11122294601A800F02C
:10733C003DFDA368002B38D004F108030DF1040CBB
:10734C00183418685968624603C20833A34294463D
:10735C00F7D1062301A90CA88DF81430FFF758FDBE
:10736C000DF1340CBCE80F0007AC0FC4DCF8003096
:10737C00237006A8FFF75EFD80B1336807ADD3F824
:10738C002090124B0C930FCD0DAC0FC42B682370B7
:10739C003A4643460CA93046C84705460098FEF7C6
:1073AC007BFF284613B0BDE8F083E368002BC3D104
:1073BC004FF6FF70D4F81090FEF7FEFF8145BBD15D
:1073CC0004F11401AAE72546E8E700BFCC900B00B6
:1073DC0038B543691A68002A054610DAB3F88620D6
:1073EC00B3F884309A420AD103681B699847044663
:1073FC0028B92B682846DB6A9847204638BD0120FF
:10740C00FCE710B54369B3F88620B3F884309A4290
:10741C00044605D06369B3F884201344187910BD71
:10742C0003681B6998470028F4D14FF0FF30F6E74A
:10743C00F8B543691746B3F88620B3F884309A42FE
:10744C0005460E4616D06969B1F88430B1F886400D
:10745C00E41ABC4228BF3C46043322461944304649
:10746C0000F096FC6A69B2F884302344A2F88430A8
:10747C002046F8BD03681B6998470028E3D14FF0FC
:10748C00FF34F5E742690023A2F884304269A2F880
:10749C00863070472DE9F0411F4603680C46DB6AC5
:1074AC008AB0054616469847237DD5F81480042BE0
:1074BC000CBF02200A2006220121FFF75DF8C8F854
:1074CC0000006B691B68002B08DA2B682846DB6A06
:1074DC000024984720460AB0BDE8F0812846FFF703
:1074EC00D1FFB7B1002303A9F8B20393ADF8103064
:1074FC00FEF722FF0028E8D1686906230093006894
:10750C0003AB41F20B0240F6FF71FFF70DF80028B8
:10751C00DBD11C22002103A800F048FC237D042BA6
:10752C001DD14FF407733046ADF80C30FEF754FF05
:10753C00ADF80E006068FEF73FFF04906B691C22EB
:10754C00186803A9FFF700F80028BED104340FCC4B
:10755C006D698C350FC523682B700124BAE740F692
:10756C001C233046ADF80C30FEF736FF05AEADF8F7
:10757C000E00231D04F1140718685968324603C223
:10758C000833BB421646F7D1D8E7000030B5426944
:10759C00B2F886308BB004462BB1B2F884209A42F4
:1075AC0001D1FFF76FFF61690868002818DBB1F89B
:1075BC0086507F2D14D804310823C5F1800229444C
:1075CC00FEF7CAFF002813DD6369B3F886200AB9F9
:1075DC00A3F884206369B3F886201044A3F88600CE
:1075EC006369B3F88600B3F88430C01A0BB030BDB1
:1075FC00FFF70EF903680B2BF2D0FFF709F90368BC
:10760C000B2BEDD020230025CDE90235FFF700F937
:10761C0003680193084B0949009302AA2B463220B8
:10762C00FFF732F863691868FEF786FF63694FF05D
:10763C00FF321A60D4E700BF67910B0060910B001A
:10764C0010B5436904461868002801DBFEF774FF87
:10765C0063694FF0FF321A606069112200218C308F
:10766C0000F0A4FB2046BDE81040FFF70BBF10B59F
:10767C00002304460160C0F884308830FFF7BAFB61
:10768C00204610BD73B500234FF47A72C0E9013265
:10769C000E4A0361026043610446AC200191FCF781
:1076AC0004FD051E05F10C0608D00123C5E90133C4
:1076BC00074B01992B603046FFF7D9FF2046C4E9F0
:1076CC000565FFF7DFFE02B070BD00BF9C910B009B
:1076DC0080910B0010B54FF0FF310446FFF7D2FF3D
:1076EC00204610BD10B504460068002801DBFEF7EB
:1076FC0023FF204610BD0C30FFF7F4BF002240687A
:10770C001146FFF70DB8002240681146FFF728B864
:10771C00002240681146FFF733B840680022FFF79B
:10772C0027B84068002281F00101FFF711B800234F
:10773C0040681A461946FFF703B8002340681A46FA
:10774C001946FEF7F5BF002240681146FEF7D8BF78
:10775C00406800220221FEF7DBBF002340681A4676
:10776C00FEF7C6BF024B04225A60024A1A607047E9
:10777C0018E70320E8910B00002340681A46FEF737
:10778C00B7BF406800220221FEF7C2BF002240684A
:10779C001146FEF7B5BF002240681146FEF7C0BF88
:1077AC00002340681A461946FEF7C2BF0023406802
:1077BC001A461946FEF7C4BF40680021FEF7E8BF21
:1077CC0040680021FEF7ECBF4068002281F0010107
:1077DC00FEF7BEBF40680022FEF7CABF0022406819
:1077EC001146FEF7CDBF002240681146FEF7B8BF28
:1077FC002DE9F04395B014460D460746FFF7FAFA0B
:10780C0000211C220DA8009100F0D0FA40230C930B
:10781C0020466B460CAA0021FEF746FD04460028C4
:10782C004BD1024601216868FEF77AFF022180469F
:10783C0022466868FEF774FF009E81462146002EA2
:10784C003BD0002939D17368022B03D00A2B11D0FD
:10785C00F669F4E7B8F1000FFAD0716906A80431A3
:10786C0007ADFFF70BFB0FCD3C1D0FC42B6823702E
:10787C004146EDE7B9F1000FEAD07469102201A876
:10788C0000F094FA06238DF8143001AD04F10803CE
:10789C001834186859682A4603C20833A34215469F
:1078AC00F7D101A906A807ADFFF7B2FA0FCD3C1D21
:1078BC000FC42B6823704946CAE70098FEF7ECFC0E
:1078CC00384615B0BDE8F083024B034A1A6000221B
:1078DC005A60704720E7032024920B00232813B52D
:1078EC0002D9002002B010BDA0F10B03022B1AD854
:1078FC00174C2178BFF35B8F11F001010BD120469F
:10790C000191FCF7E5FB019928B11248FEF7DCFF69
:10791C002046FCF7E2FB0F4B1878FEF74DFE0028D3
:10792C00DFD10120DEE7012809D800F0EBF80021B7
:10793C00007CFEF7E1FD80F00100C0B2D2E709380F
:10794C000128EED800F09EF8007CFEF775FDF2E7FA
:10795C00B8E60320BCE60320232838B504460D46C0
:10796C000AD8FF2908D0FFF7B9FF28B129462046CD
:10797C00BDE83840FEF7A8BC38BD38B504460D4606
:10798C00FEF7AAFCFF2810D0062804D84D2323FAB2
:10799C0000F0C30709D42046FFF7A0FF28B1294601
:1079AC002046BDE83840FEF79FBC38BD10B50446F4
:1079BC00FEF792FC031FDBB2012B08D92046FFF720
:1079CC008DFF20B12046BDE81040FEF795BC00208D
:1079DC0010BD0D2810B504469CBF0E34A4B2204631
:1079EC00FFF77CFF50B103212046FEF765FC03280E
:1079FC0004D12046BDE81040FEF78EBC002010BD1F
:107A0C0038B504460D46FFF769FFF0B10421204656
:107A1C00FEF752FC042805D1A9B22046BDE8384037
:107A2C00FEF772BC02212046FEF746FC02280CD160
:107A3C002046FEF751FC012801D0042805D1294627
:107A4C002046BDE83840FEF76FBC38BD70470000DB
:107A5C0038B5044614252A46002100F0A7F92580E4
:107A6C004025074925812846258200F06FF80449F6
:107A7C006060284600F06AF8E060204638BD00BF20
:107A8C0058920B0030B50E4D2978BFF35B8F11F077
:107A9C00010487B011D12846FCF71AFB68B101A884
:107AAC00FFF7D6FF01AA21460648FFF7B9FA284688
:107ABC00FCF713FB044800F05DF9024807B030BD39
:107ACC0028E703202CE70320597A0B0070470000AD
:107ADC0038B50A4B03600123044643610849202052
:107AEC0000F034F8202560600549A560284600F0B8
:107AFC002DF8C4E90305204638BD00BF180001006D
:107B0C0058920B0030B50E4D2978BFF35B8F11F0F6
:107B1C00010487B011D12846FCF7DAFA68B168463F
:107B2C00FFF7D6FF6A4621460648FFF7B9FA284602
:107B3C00FCF7D3FA044800F01DF9024807B030BD39
:107B4C0044E7032048E70320D97A0B00FCF7AFBACF
:107B5C00014900F0F9B800BF74920B007FB5002406
:107B6C001023CDE90234036815469E6912686B46F2
:107B7C00CDE90044B0479DF8043003F00603062B12
:107B8C0003BF009B2B600120204604B070BD009801
:107B9C00904214BF012006207047000010B5034B23
:107BAC000360044600F0CDF8204610BDB4920B00E3
:107BBC0010B50446FFF7F2FF20460821FCF779FACE
:107BCC00204610BD2DE9F0411F46DDE90834DDF8F3
:107BDC00188098450646154607D1079900F0B4F869
:107BEC0018B165710020BDE8F0813946304600F0CF
:107BFC00ABF80028F6D00123C4F800802571A371DE
:107C0C00F0E738B515461C4600F09EF820B1082365
:107C1C00E36006232560237138BD73B505460C4619
:107C2C0001921E4600F090F850B9032E08D8236834
:107C3C00019A5B692946204602B0BDE8704018479E
:107C4C0002B070BD10B5034B03600446FFF7A6FFEE
:107C5C00204610BD14930B0010B50446FFF7F2FF3D
:107C6C0020460C21FCF725FA204610BDF7B5089FDD
:107C7C00974205460E4614460AD0A8680268089733
:107C8C00156A31462246AC4603B0BDE8F040604769
:107C9C001946019300F058F8019B0028EDD00620FE
:107CAC0003B0F0BD2DE9F14F0D461946DDE90A4B45
:107CBC00DDE90CA681461746984600F045F890B1D0
:107CCC00002D3460377109DB61198A450CBF062120
:107CDC000121B171002001B0BDE8F08F0235F9D15E
:107CEC000123B371F6E7544506D15946484600F0D6
:107CFC002BF808B17771EDE7D9F808000368CDE9E6
:107D0C000CA6CDE90A4BDC693A4643462946A44603
:107D1C0001B0BDE8F04F60472DE9F04107460C4635
:107D2C0015461E46FFF76DFF48B9B86803689F6992
:107D3C002A4633462146BC46BDE8F0416047BDE8C3
:107D4C00F081704700207047814208B50ED0406822
:107D5C0003782A2B0CD049680B782A2B08BF0131E9
:107D6C00FCF756F9B0FA80F0400908BD0120FCE799
:107D7C000020FAE7002301461A46184600F0ECB83A
:107D8C000A22002100F0DEB80A22002100F0DAB845
:107D9C000A44914200F1FF3300D1704710B511F83D
:107DAC00014B03F8014F9142F9D110BD0244034637
:107DBC00934200D1704703F8011BF9E738B5104B1B
:107DCC001D68AB6B0446B3B91820FEF701FD0246E3
:107DDC00A86320B90B4B0C484221FEF721FD0B493F
:107DEC000B4BC0E900130B4B83600B2383810021E9
:107DFC000120C2E90401AB6B00221C615A6138BD41
:107E0C0078E503204D930B0064930B000E33CDAB40
:107E1C0034126DE6ECDE050010B50139034632B1C3
:107E2C0011F8014F03F8014B013A002CF7D11A4419
:107E3C000021934200D110BD03F8011BF9E70000AB
:107E4C00012B2DE9F04701D0242B06D9FEF7E0FCDD
:107E5C00162303600020BDE8F087DFF8E4C00D4670
:107E6C002E4615F8014B14F80C7017F00807F7D1D3
:107E7C002D2C32D12C780127B51C002B5BD0102B6C
:107E8C0009D1302C07D12C7804F0DF04582C4DD1BB
:107E9C006C781023023507F1004808F1FF384FF0D9
:107EAC00000CB8FBF3F9664603FB198AA4F1300EFB
:107EBC00BEF1090F16D87446A34224DDBCF1000FA5
:107ECC001EDBB1451CD301D1A24519DB06FB0346D1
:107EDC004FF0010C15F8014BE8E72B2C04BF2C7864
:107EEC00B51CCAE7A4F1410EBEF1190F01D8373CFD
:107EFC00E2E7A4F1610EBEF1190F04D8573CDBE7A1
:107F0C004FF0FF3CE6E7BCF1000F05DA22230360DB
:107F1C00464642B930469EE707B17642002AF9D070
:107F2C00BCF1000F00D0691E1160F3E73024002B68
:107F3C00B1D10823AFE7302CA5D00A23ABE700BFA3
:107F4C00E2930B0013460A46014602480068FFF70D
:107F5C0077BF00BF78E503202DE9F843DFF8B88040
:107F6C000646D8F800001F460D46914600F056F81C
:107F7C00254B1C6834B9254C1C60254B13B11B6870
:107F8C00C4F8883063681F2B07DDD8F8000000F0B8
:107F9C0047F84FF0FF30BDE8F8834EB3D4F88800B3
:107FAC0088B91C4B23B9D8F8000000F038F8F0E77A
:107FBC004FF48470FEF70CFC0028F4D00023C0E9C9
:107FCC004033C4F88800636840F8239001229A403B
:107FDC0000EB8301D0F800311343C0F80031022EBE
:107FEC00C1F8807002BFD0F804311343C0F80431DB
:107FFC006368D8F800005A1C0233626044F82350BE
:10800C0000F00EF80020C6E7E8E703205CE7032049
:10801C0000000000DD670B00DCE5032070477047B3
:10802C007047000041400B007D400B00A5400B0049
:10803C00A9400B000000000043616C6C206F6E20A7
:10804C0070757265207669727475616C00256900B3
:10805C00256C6900696E006F75740070776D006433
:10806C007700617700746D706C00544D504C327217
:10807C00456A79685F4A6E00767700375A33662D09
:10808C00653377335279486B7049724A6737556656
:10809C0044447A374C5439704C783500626C796EA4
:1080AC006B2E636C6F756400626C6E6B696E660030
:1080BC0076657200312E312E3000682D6265617448
:1080CC0000343500627566662D696E0031303234CD
:1080DC0000646576005061727469636C652041724E
:1080EC00676F6E0066772D7479706500544D504C37
:1080FC003272456A79685F4A6E006275696C640019
:10810C004A756C20203120323032332031393A35E7
:10811C00333A343500000064656661756C74200078
:10812C004D5342004C5342003C53504953657474B8
:10813C00696E67732064656661756C743E003C53B0
:10814C00504953657474696E6773202573257520C7
:10815C002573204D4F444525753E0000000000005E
:10816C003E5B4F5B3E3E6B4F6B3E1C3E7C3E1C1899
:10817C003C7E3C181C577D571C1C5E7F5E1C0018F7
:10818C003C1800FFE7C3E7FF0018241800FFE7DBEB
:10819C00E7FF30483A060E2629792926407F050547
:1081AC0007407F05253F5A3CE73C5A7F3E1C1C0884
:1081BC00081C1C3E7F14227F22145F5F005F5F0649
:1081CC00097F017F006689956A606060606094A297
:1081DC00FFA29408047E040810207E201008082AB0
:1081EC001C08081C2A08081E101010100C1E0C1E4F
:1081FC000C30383E3830060E3E0E060000000000F3
:10820C0000005F00000007000700147F147F142497
:10821C002A7F2A122313086462364956205000081C
:10822C00070300001C2241000041221C002A1C7F75
:10823C001C2A08083E08080080703000080808084E
:10824C0008000060600020100804023E5149453EC1
:10825C0000427F400072494949462141494D33183B
:10826C0014127F1027454545393C4A494931412173
:10827C001109073649494936464949291E00001457
:10828C00000000403400000008142241141414149F
:10829C0014004122140802015909063E415D594E51
:1082AC007C1211127C7F494949363E414141227F63
:1082BC004141413E7F494949417F090909013E41FC
:1082CC004151737F0808087F00417F4100204041E5
:1082DC003F017F081422417F404040407F021C0236
:1082EC007F7F0408107F3E4141413E7F090909060A
:1082FC003E4151215E7F09192946264949493203DD
:10830C00017F01033F4040403F1F2040201F3F4062
:10831C0038403F631408146303047804036159491B
:10832C004D43007F4141410204081020004141416E
:10833C007F04020102044040404040000307080053
:10834C0020545478407F28444438384444442838D6
:10835C004444287F385454541800087E090218A449
:10836C00A49C787F0804047800447D4000204040A1
:10837C003D007F1028440000417F40007C047804BD
:10838C00787C080404783844444438FC18242418B5
:10839C0018242418FC7C080404084854545424045D
:1083AC00043F44243C4040207C1C2040201C3C408A
:1083BC0030403C44281028444C9090907C446454A9
:1083CC004C4400083641000000770000004136089C
:1083DC000002010204023C2623263C1EA1A16112CC
:1083EC003A4040207A3854545559215555794122F8
:1083FC0054547842215554784020545579400C1EE1
:10840C005272123955555559395454545939555489
:10841C0054580000457C410002457D420001457CDA
:10842C00407D1211127DF0282528F07C5455450012
:10843C002054547C547C0A097F4932494949323AC8
:10844C004444443A324A4848303A4141217A3A420B
:10845C00402078009DA0A07D3D4242423D3D4040E1
:10846C00403D3C24FF2424487E4943662B2FFC2F9F
:10847C002BFF0929F620C0887E090320545479412A
:10848C000000447D413048484A32384040227A004E
:10849C007A0A0A727D0D19317D2629292F28262961
:1084AC0029292630484D40203808080808080808B3
:1084BC0008382F10C8ACBA2F102834FA00007B00F3
:1084CC000008142A142222142A14085500550055A9
:1084DC00AA55AA55AAFF55FF55FF000000FF001032
:1084EC001010FF00141414FF001010FF00FF1010E8
:1084FC00F010F0141414FC001414F700FF0000FF2B
:10850C0000FF1414F404FC141417101F10101F1087
:10851C001F1414141F00101010F0000000001F1086
:10852C001010101F10101010F010000000FF101091
:10853C0010101010101010FF10000000FF1400009D
:10854C00FF00FF00001F10170000FC04F4141417A8
:10855C0010171414F404F40000FF00F7141414148E
:10856C00141414F700F7141414171410101F101F00
:10857C00141414F4141010F010F000001F101F004D
:10858C0000001F14000000FC140000F010F010108C
:10859C00FF10FF141414FF141010101F0000000023
:1085AC00F010FFFFFFFFFFF0F0F0F0F0FFFFFF0017
:1085BC0000000000FFFF0F0F0F0F0F38444438442A
:1085CC00FC4A4A4A347E02020606027E027E02639E
:1085DC00554941633844443C04407E201E20060229
:1085EC007E020299A5E7A5991C2A492A1C4C720106
:1085FC00724C304A4D4D303048784830BC625A4647
:10860C003D3E494949007E0101017E2A2A2A2A2A37
:10861C0044445F444440514A444040444A51400021
:10862C0000FF0103E080FF000008086B6B083612A6
:10863C00362436060F090F0600001818000000102B
:10864C0010003040FF0101001F01011E00191D1711
:10865C0012003C3C3C3C000000000000000000000C
:10866C00000000000000000000000000AD530B00F3
:10867C00896A0B00C5400B00B34D0B00B54D0B00C8
:10868C00E74D0B00C34D0B00D54D0B00F54C0B000B
:10869C00B34D0B00DF4F0B00DD4F0B00FF4D0B00FC
:1086AC003D4E0B00774E0B00BD4E0B00D94E0B0010
:1086BC005D4F0B000000000000000000BD540B00DB
:1086CC00DD540B00AD530B00896A0B00A5590B0050
:1086DC00B34D0B00B54D0B00E74D0B00C34D0B001C
:1086EC00D54D0B00F54C0B00B34D0B00DF4F0B00C1
:1086FC00435B0B00EB600B009D600B00774E0B0097
:10870C00BD4E0B00D94E0B005D4F0B00000000005E
:10871C0000000000A14C0B00754C0B00774C0B00BB
:10872C0000000000000180000000000000000000BC
:10873C00038000000000000000000007C0000000E3
:10874C0000000000000007C0000000000000000056
:10875C00000FC00000000000000000001FE000003F
:10876C00000000000000001FE000000000000000FE
:10877C0000003FE00000000000000000003FF0009F
:10878C0000000000000000007FF00000000000006E
:10879C00001FF87FF0000000000000003FFE7FF09B
:1087AC00000000000000003FFF7FF0000000000010
:1087BC0000001FFFFBE0000000000000000FFFF9AD
:1087CC00FFC00000000000000FFFF9FFF8000000E0
:1087DC0000000007FFF1FFFF00000000000003FC99
:1087EC0073FFFF80000000000001FE3FFFFF8000D0
:1087FC000000000000FF1E0FFF0000000000000042
:10880C007FFE1FFC000000000000003FFFFFF8008F
:10881C000000000000000FDFFFE00000000000007F
:10882C00001F19FFC0000000000000003F3CFF00CB
:10883C00000000000000007E7CF80000000000003A
:10884C0000007FFE7C0000000000000000FFFFFC29
:10885C000000000000000000FFFFFE000000000010
:10886C00000000FFFFFE0000000000000001FFEF11
:10887C00FE0000000000000001FFCFFE0000000021
:10888C0000000003FF07FE0000000000000003FCD6
:10889C0007FE0000000000000003F003FE000000D3
:1088AC0000000000018000FE00000000000000003D
:1088BC0000007E000000000000000000003E0000F0
:1088CC0000000000000000000C0000000000000789
:1088DC008000FC000003C0000000078001FC0000C9
:1088EC0003C0000000078001FC000003C000000072
:1088FC00078001E00000001E000000078001E0007E
:10890C0000001E007FE3F79FF9FDE7787BDFC0FFD7
:10891C00F7FFBFFDFDFF787BDFC0FFF7FFBFFDFD5D
:10892C00FF787BDFC0F0F787BC3DE1FF787BDE0092
:10893C00F0F787BC3DE1F0787BDE0000F787803DE7
:10894C00E1E0787BDE007FF7879FFDE1E0787BDE5E
:10895C0000FFF787BFFDE1E0787BDE00F0F787BC16
:10896C003DE1E0787BDE00F0F787BC3DE1E0787B11
:10897C00DE00F0F787BC3DE1E0787BDE00FFF7FF1F
:10898C00BFFDE1E07FFBDFC0FFF7FFBFFDE1E07F54
:10899C00FBDFC07CF3F39F3DE1E03E7BCFC00000EA
:1089AC00000000000000000000FFFFFFFFFFFFFFC2
:1089BC00FFFFFFC0FFFFFFFFFD68DB111A31C0FF97
:1089CC00FFFFFFFD2B5AFB6AEFC0FFFFFFFFFD4BC4
:1089DC005B3B1A33C0FFFFFFFFFD6B5BDB6AFDC027
:1089EC00000060000000000000000000000000001B
:1089FC0000E000000000000000000000000000018A
:108A0C00E00000000000000000000000000001F089
:108A1C000000000000000000000000000003F00057
:108A2C0000000000000000000000000007F0000043
:108A3C00000000000000000000000007F80000002B
:108A4C00000000000000000000000FF80000000310
:108A5C00C0007E000001E0007F0FF800000003C0A2
:108A6C0000FE000001E000FFEFF800000003C00072
:108A7C00FE000001E000FFFFF800000003C000F062
:108A8C000000000F007FFE7FC0000003C000F0005C
:108A9C0000000F003FFE7FF83FF1FBCFFCFEF3BC64
:108AAC003DEFE01FFE7FFF7FFBFFDFFEFEFFBC3DC7
:108ABC00EFE01FC6FFFF7FFBFFDFFEFEFFBC3DEFBD
:108ACC00E00FE3C7FE787BC3DE1EF0FFBC3DEF007A
:108ADC0007FF87FC787BC3DE1EF0F83C3DEF0001FE
:108AEC00FFFFF0007BC3C01EF0F03C3DEF0001F334
:108AFC007FE03FFBC3CFFEF0F03C3DEF0003E33FD4
:108B0C00807FFBC3DFFEF0F03C3DEF0007E73C004D
:108B1C00787BC3DE1EF0F03C3DEF0007FFBE007813
:108B2C007BC3DE1EF0F03C3DEF0007FFFE00787BC0
:108B3C00C3DE1EF0F03C3DEF000FFFFE007FFBFF9D
:108B4C00DFFEF0F03FFDEFE00FFFFF007FFBFFDFEC
:108B5C00FEF0F03FFDEFE00FF9FF003E79F9CF9EFC
:108B6C00F0F01F3DE7E01FF1FF00000000000000E7
:108B7C0000000000001F80FF007FFFFFFFFFFFFFD2
:108B8C00FFFFFFE01C007F007FFFFFFFFEB46D883E
:108B9C008D18E000001F007FFFFFFFFE95AD7DB537
:108BAC0077E000000F007FFFFFFFFEA5AD9D8D1944
:108BBC00E0000006007FFFFFFFFEB5ADEDB57EE0E7
:108BCC00000000000000000079590B0091590B00C7
:108BDC00AD530B00896A0B00A5590B00B34D0B006C
:108BEC00B54D0B00E74D0B00C34D0B00D54D0B00E5
:108BFC00F54C0B00B34D0B00DF4F0B00435B0B0030
:108C0C00EB600B009D600B00774E0B00BD4E0B0014
:108C1C00D94E0B005D4F0B000080C0E0F0F8FCFE5D
:108C2C00000103070F1F3F7FAED580A8D300408DF6
:108C3C002000A1C8DB40A4A62EAFDA02818FDA1285
:108C4C0081DA02812200FF210000000075620B0016
:108C5C0075620B0075620B0075620B0075620B0080
:108C6C0075620B0075620B0075620B0075620B0070
:108C7C0075620B0075620B0075620B0075620B0060
:108C8C0075620B0075620B0075620B0075620B0050
:108C9C0075620B0075620B0075620B0075620B0040
:108CAC0075620B0075620B0075620B0075620B0030
:108CBC0075620B0075620B0075620B0075620B0020
:108CCC0075620B0075620B0075620B0075620B0010
:108CDC0075620B0075620B0075620B0075620B0000
:108CEC0075620B0075620B0075620B0075620B00F0
:108CFC0075620B0075620B0075620B0075620B00E0
:108D0C0075620B0075620B0075620B0075620B00CF
:108D1C0075620B0075620B0075620B0075620B00BF
:108D2C0075620B0075620B0075620B0075620B00AF
:108D3C0075620B0075620B0075620B0075620B009F
:108D4C0075620B0075620B0075620B0075620B008F
:108D5C0075620B0075620B0075620B0075620B007F
:108D6C0075620B0075620B0075620B0075620B006F
:108D7C0075620B0075620B0075620B0075620B005F
:108D8C0075620B0075620B0075620B0075620B004F
:108D9C0075620B0075620B0075620B0075620B003F
:108DAC0075620B0075620B0075620B0075620B002F
:108DBC0075620B0075620B0075620B0075620B001F
:108DCC0075620B0075620B0075620B0075620B000F
:108DDC0075620B0075620B0075620B0075620B00FF
:108DEC0075620B0075620B0075620B0075620B00EF
:108DFC0075620B0075620B0075620B0075620B00DF
:108E0C0075620B0075620B0075620B0075620B00CE
:108E1C0075620B0075620B0075620B0075620B00BE
:108E2C0075620B0075620B0075620B0075620B00AE
:108E3C0075620B0075620B0075620B0075620B009E
:108E4C0075620B0075620B0075620B0077620B008C
:108E5C0077620B0077620B0077620B0077620B0076
:108E6C0077620B0077620B0077620B0077620B0066
:108E7C0077620B0077620B0077620B0077620B0056
:108E8C0077620B0077620B0077620B0077620B0046
:108E9C0077620B0077620B0077620B0077620B0036
:108EAC0077620B0077620B0077620B0077620B0026
:108EBC0077620B0077620B0077620B0077620B0016
:108ECC0077620B0077620B0077620B0077620B0006
:108EDC0077620B0077620B0077620B0077620B00F6
:108EEC0077620B0077620B0077620B0077620B00E6
:108EFC0077620B0077620B0077620B0077620B00D6
:108F0C0077620B0077620B0077620B0077620B00C5
:108F1C0077620B0077620B0077620B0077620B00B5
:108F2C0077620B0077620B0077620B0077620B00A5
:108F3C0077620B0077620B0077620B0077620B0095
:108F4C0077620B0077620B0077620B0077620B0085
:108F5C0077620B0077620B0077620B0077620B0075
:108F6C0077620B0077620B0077620B0077620B0065
:108F7C0077620B0077620B0077620B0077620B0055
:108F8C0077620B0077620B0077620B0077620B0045
:108F9C0077620B0077620B0077620B0077620B0035
:108FAC0077620B0077620B0077620B0077620B0025
:108FBC0077620B0077620B0077620B0077620B0015
:108FCC0077620B0077620B0077620B0077620B0005
:108FDC0077620B0077620B0077620B0077620B00F5
:108FEC0077620B0077620B0077620B0077620B00E5
:108FFC0077620B0077620B0077620B0077620B00D5
:10900C0077620B0077620B0077620B0077620B00C4
:10901C0077620B0077620B0077620B0077620B00B4
:10902C0077620B0077620B0077620B0077620B00A4
:10903C0077620B0077620B0077620B0077620B0094
:10904C0077620B0077620B0077620B000000000068
:10905C0000000000AB680B00A1680B0097680B00C8
:10906C008D680B0081680B0075680B00C5770B00D1
:10907C00CD770B0069680B0061680B0057680B001B
:10908C004D680B00FD770B000008101820283038B5
:10909C0000000000000000006170700025592D25B3
:1090AC006D2D25645425483A254D3A2553257A00D3
:1090BC0061736374696D65000000000000000000BE
:1090CC009D6D0B008D6D0B008F6D0B000000000073
:1090DC0000000000AF6E0B00176F0B00ED6E0B0065
:1090EC00896A0B00DF6E0B00B16E0B00C16E0B00BA
:1090FC00116F0B00D16E0B00A96E0B00000000006D
:10910C0000000000B16F0B001D700B00F56F0B0021
:10911C00896A0B00C56F0B00E16F0B00D36F0B005E
:10912C00EF6F0B00B36F0B00B76F0B00000000006C
:10913C000000000055700B009F700B0077700B0047
:10914C0057700B007F700B0087700B008F700B003B
:10915C0097700B00776972696E6700726563762091
:10916C006572726F72203D202564000000000000C3
:10917C0000000000F5710B0019720B0003770B0057
:10918C0027720B00F9710B000000000000000000BA
:10919C001D6C0B00356C0B0071710B008B710B008F
:1091AC0099750B00B5710B000F740B00E9710B0076
:1091BC00A1740B00E1720B003D740B004D760B009B
:1091CC00DD730B00EB710B009D710B002D720B000E
:1091DC00C1720B00000000000000000067770B005C
:1091EC005D770B0053770B0009770B0047770B006B
:1091FC003B770B00C5770B00CD770B002F770B005F
:10920C0027770B001D770B0013770B00FD770B00F6
:10921C00000000000000000085770B008F770B002A
:10922C0099770B00A3770B00AD770B00B9770B0088
:10923C00C5770B00CD770B00D5770B00E1770B00D2
:10924C00E9770B00F3770B00FD770B0000537431BB
:10925C00395F53705F6D616B655F736861726564D4
:10926C005F74616700000000B4920B0059920B0010
:10927C0014930B0088920B0038930B004E31305F27
:10928C005F637878616269763131375F5F636C61F7
:10929C0073735F747970655F696E666F450000006B
:1092AC00000000007C920B00A97B0B00BD7B0B0027
:1092BC00517D0B00517D0B00277C0B00697B0B0053
:1092CC000F7C0B00D17B0B009B7B0B0014930B00D2
:1092DC00E4920B007C920B004E31305F5F63787828
:1092EC00616269763132305F5F73695F636C6173A1
:1092FC00735F747970655F696E666F45000000007E
:10930C0000000000D8920B00517C0B00657C0B0018
:10931C00517D0B00517D0B00277C0B00697B0B00F2
:10932C00257D0B00B17C0B00797C0B00B4920B00FB
:10933C0040930B00537439747970655F696E666F76
:10934C00005245454E54206D616C6C6F63207375F3
:10935C0063636565646564002F6D6E742F776F723F
:10936C006B73706163652F776F726B73706163657C
:10937C002F4743432D31302D706970656C696E65D4
:10938C002F6A656E6B696E732D4743432D31302DFB
:10939C00706970656C696E652D34385F32303230AF
:1093AC00313132345F313630363138303634312F5A
:1093BC007372632F6E65776C69622F6E65776C695B
:1093CC00622F6C6962632F7374646C69622F7261B3
:1093DC006E642E63000020202020202020202028D6
:1093EC002828282820202020202020202020202051
:1093FC002020202020208810101010101010101089
:10940C0010101010101004040404040404040404C8
:10941C001010101010101041414141414101010147
:10942C000101010101010101010101010101010120
:10943C00011010101010104242424242420202022D
:10944C0002020202020202020202020202020202F0
:10945C00021010101020000000000000000000009E
:10946C0000000000000000000000000000000000F0
:10947C0000000000000000000000000000000000E0
:10948C0000000000000000000000000000000000D0
:10949C0000000000000000000000000000000000C0
:1094AC0000000000000000000000000000000000B0
:1094BC0000000000000000000000000000000000A0
:1094CC000000000000000000000000000000000090
:1094DC000000000000000000214C0B00B5680B00E0
:1094EC002D6A0B00796A0B00F16B0B00016C0B0001
:0C94FC00496C0B0071770B00D5780B0059
:10950800040000001400000003000000474E55004E
:10951800FF297691CCA242889D89F4ACE23EC68EA2
:0495280010C185EDFC
:10952C0001010000BC900B007CE503200000000052
:10953C00000000000000000000000000000000001F
:10954C00000000000000000000000000000000000F
:10955C0000000000000000000000000000000000FF
:10956C0000000000000000000000000000000000EF
:10957C0000000000000000000000000000000000DF
:10958C00000000000000000000000000ECE70320D9
:04959C0000000000CB
:1095A60000000102030405060708090A0B0C0D0E4C
:1095B6000F101112131415161718191A1B1C1D1E3D
:0495C6001F2028003A
:0495CA007856341289
:04000003B000401CED
:00000001FF
